:04000000FEEF3FF0E0
:100600000048756D656461643A20252E31662525A4
:1006100000496E696369616E646F2E2E2E00546509
:100620006D703A20252E31662043004572726F723C
:100630002073656E736F7200696E66006E616E0086
:0106400000B9
:100642000001816B41C084F042C085F043C086F056
:1006520044C087F087BF32EF03F030EF03F046EF7C
:1006620003F0010E816F84C001F085C002F086C0E4
:1006720003F087C004F085EC17F001C084F002C0DB
:1006820085F003C086F004C087F0000E0001836F7E
:10069200000E826FD0C071F0D1C072F08151D8B417
:1006A20055EF03F057EF03F06BEF03F08151D8A43D
:1006B2005DEF03F05FEF03F065EF03F0000E676F8D
:1006C2002B0E666F69EF03F0000E676F2D0E666FDB
:1006D20066C081F084C001F085C002F086C003F0DC
:1006E20087C004F0EEEC13F001040210D8A47CEFF2
:1006F20003F07EEF03F0ADEF03F000018151D8B4B7
:1007020085EF03F087EF03F090EF03F081C000F173
:100712007107D8A07207000E836F010E826F000E60
:100722008225016E010E8321026E380E036E4CEC9F
:1007320017F00001FD0E7127FF0E722340C00FF06B
:10074200000E106E010E116E71C012F072C013F025
:10075200A2EC15F012EF08F084C001F085C002F09F
:1007620086C003F087C004F0EEEC13F001500210D3
:10077200D8A4BEEF03F0C0EF03F0DEEF03F00001F8
:100782008151D8B4C7EF03F0C9EF03F0D2EF03F001
:1007920081C000F17107D8A07207000E836F010EAD
:1007A200826F000E8225016E010E8321026E3C0EC5
:1007B200036E4CEC17F09AEF03F0000E0001886F05
:1007C200000E896F800E8A6F3F0E8B6F000E706F66
:1007D200000E6F6F84C001F085C002F086C003F086
:1007E20087C004F0000E056E000E066E000E076E46
:1007F200000E086EC2EC14F0D8B002EF04F004EF61
:1008020004F0E3EF04F011EF04F073C088F074C059
:1008120089F075C08AF076C08BF000016F4B702BA7
:1008220088C001F089C002F08AC003F08BC004F0D6
:10083200000E056E000E066E200E076E410E086E4B
:100842006EEC0AF001C073F002C074F003C075F0E0
:1008520004C076F000017351845D016E74518559B4
:10086200026E75518659036E76518759046E30ECCB
:1008720016F004BE48EF04F004500310021009E120
:10088200020E015CD8A048EF04F04AEF04F006EF34
:1008920004F073C01AF074C01BF075C01CF076C06F
:1008A2001DF084C01EF085C01FF086C020F087C0F6
:1008B20021F06CEC13F0D8A061EF04F063EF04F0C8
:1008C20006EF04F000018851845D016E895185595B
:1008D200026E8A518659036E8B518759046E30EC31
:1008E20016F004BE82EF04F004500310021007E178
:1008F200020E015CD8B080EF04F082EF04F0CAEF80
:1009020004F088C084F089C085F08AC086F08BC06C
:1009120087F0E3EF04F088C00FF089C010F08AC0BE
:1009220011F08BC012F0000E136E000E146E200E2A
:10093200156E410E166E81EC0CF00FC088F010C0DF
:1009420089F011C08AF012C08BF000016F07D8A0A5
:1009520070078851845D016E89518559026E8A51F2
:100962008659036E8B518759046E30EC16F004BE23
:10097200C8EF04F004500310021007E1020E015CFC
:10098200D8B0C6EF04F0C8EF04F0CAEF04F082EF6B
:1009920004F084C01AF085C01BF086C01CF087C02A
:1009A2001DF088C01EF089C01FF08AC020F08BC0E5
:1009B20021F06CEC13F0D8A0E1EF04F0E3EF04F0C7
:1009C2008CEF04F045C069F069C06AF00001D3BF42
:1009D200EDEF04F0EFEF04F0F5EF04F0D2C062F0B7
:1009E200D3C063F0F9EF04F0000E636F060E626F7E
:1009F20062C06DF063C06EF06D4B6E2B660E6A19AD
:100A0200D8A406EF05F008EF05F028EF05F070BF57
:100A12000FEF05F00DEF05F01BEF05F0000E886FEC
:100A2200000E896F800E8A6F3F0E8B6F000E706F03
:100A3200000E6F6F670E6919D8B422EF05F024EF2C
:100A420005F028EF05F06F516D2770516E23000EEF
:100A5200786F000E776F84C079F085C07AF086C017
:100A62007BF087C07CF088C073F089C074F08AC0C4
:100A720075F08BC076F0B9EF05F079C00FF07AC04F
:100A820010F07BC011F07CC012F088C013F089C056
:100A920014F08AC015F08BC016F081EC0CF00FC078
:100AA20028F010C029F011C02AF012C02BF049EC36
:100AB2000EF028C07DF029C07EF02AC07FF02BC046
:100AC20080F07DC001F07EC002F07FC003F080C0E4
:100AD20004F0E9EC12F001C06BF002C06CF079C0D6
:100AE20038F07AC039F07BC03AF07CC03BF07DC070
:100AF20005F07EC006F07FC007F080C008F088C015
:100B020001F089C002F08AC003F08BC004F06EECE1
:100B12000AF001C03CF002C03DF003C03EF004C048
:100B22003FF0AAEC16F038C079F039C07AF03AC03A
:100B32007BF03BC07CF088C00FF089C010F08AC007
:100B420011F08BC012F0000E136E000E146E200E08
:100B5200156E410E166E81EC0CF00FC088F010C0BD
:100B620089F011C08AF012C08BF00001774B782B0C
:100B72006D51775D7851800A466E6E51800A4658F3
:100B8200D8A0C6EF05F0C8EF05F03EEF05F088C02B
:100B920001F089C002F08AC003F08BC004F0000E9D
:100BA200056E000E066EA00E076E400E086E6EEC0D
:100BB2000AF001C07DF002C07EF003C07FF004C0E5
:100BC20080F079C01AF07AC01BF07BC01CF07CC0A8
:100BD2001DF07DC01EF07EC01FF07FC020F080C0DF
:100BE20021F06CEC13F0D8B0F9EF05F0FBEF05F053
:100BF20006EF06F0000E00017D6F000E7E6F000E04
:100C02007F6F000E806F2FEF06F079C001F07AC07F
:100C120002F07BC003F07CC004F07DC005F07EC012
:100C220006F07FC007F080C008F0C2EC14F0D8A034
:100C32001DEF06F01FEF06F02FEF06F000016BB17B
:100C420025EF06F027EF06F02FEF06F0000E7D6F7E
:100C5200000E7E6F000E7F6F000E806F84C028F042
:100C620085C029F086C02AF087C02BF07DC02CF009
:100C72007EC02DF07FC02EF080C02FF013EC08F064
:100C820028C079F029C07AF02AC07BF02BC07CF012
:100C920079C01AF07AC01BF07BC01CF07CC01DF03A
:100CA200000E056E000E066E200E076E410E086ED7
:100CB20073C001F074C002F075C003F076C004F096
:100CC2006EEC0AF001C01EF002C01FF003C020F05B
:100CD20004C021F06CEC13F0D8A072EF06F074EFB0
:100CE20006F09DEF06F000016F4B702B73C001F010
:100CF20074C002F075C003F076C004F0000E056EF9
:100D0200000E066E200E076E410E086E6EEC0AF0A3
:100D120001C073F002C074F003C075F004C076F035
:100D2200660E00016A19D8A499EF06F09BEF06F04F
:100D32009DEF06F06D4B6E2B73C088F074C089F086
:100D420075C08AF076C08BF06FC060F070C061F041
:100D52000001686B000E656F000E646F000E786F05
:100D6200000E776F9AEF07F079C00FF07AC010F09B
:100D72007BC011F07CC012F088C013F089C014F05F
:100D82008AC015F08BC016F081EC0CF00FC028F071
:100D920010C029F011C02AF012C02BF049EC0EF05D
:100DA20028C07DF029C07EF02AC07FF02BC080F0E1
:100DB2007DC001F07EC002F07FC003F080C004F06D
:100DC200E9EC12F002BEF1EF06F0025007E10A0E62
:100DD200015CD8B0EFEF06F0F1EF06F001EF07F09B
:100DE2007DC001F07EC002F07FC003F080C004F03D
:100DF200E9EC12F001C06BF002C06CF006EF07F0F4
:100E0200000E00016C6F090E6B6F00016851D8A4CF
:100E12000DEF07F00FEF07F037EF07F061BF16EFA6
:100E220007F014EF07F037EF07F0000E8225D96EB6
:100E3200010E8321DA6E2E0EDF6E824B832B710739
:100E4200D8A07207010E686F37EF07F0000E8225F7
:100E5200D96E010E8321DA6E300EDF6E824B832B48
:100E62007107D8A072076407D8A06507645165119D
:100E7200D8A43EEF07F040EF07F027EF07F0000E8F
:100E82008225D96E010E8321DA6E6B51300FDF6E2F
:100E9200824B832B7107D8A0720779C038F07AC0D1
:100EA20039F07BC03AF07CC03BF07DC005F07EC0DB
:100EB20006F07FC007F080C008F088C001F089C04A
:100EC20002F08AC003F08BC004F06EEC0AF001C09D
:100ED2003CF002C03DF003C03EF004C03FF0AAEC7B
:100EE20016F038C079F039C07AF03AC07BF03BC0D6
:100EF2007CF088C00FF089C010F08AC011F08BC05E
:100F020012F0000E136E000E146E200E156E410EBE
:100F1200166E81EC0CF00FC088F010C089F011C081
:100F22008AF012C08BF000016007D8A06107774BEE
:100F3200782B6D51775D7851800A466E6E51800A2A
:100F42004658D8B0A7EF07F0A9EF07F0B7EF07F0C0
:100F520083BFB5EF07F0835109E14B0E825DD8A044
:100F6200B5EF07F0B7EF07F0B5EF06F0000E786FB8
:100F72004F0E776F000E7725D96E010E7821DA6E4B
:100F8200DF6A000E466E010E476E8251465E835145
:100F9200475A77514624016E78514720026E000E5F
:100FA200036E010E046E82C005F083C006F05BEC96
:100FB20016F000018251775D826F83517859836FF9
:100FC2008151D8A4E7EF07F0EAEF07F0010EEBEF4B
:100FD20007F0000E776F786B8151D8B4F3EF07F00A
:100FE200F5EF07F000EF08F08207D8A08307000EA4
:100FF2008225D96E010E8321DA6E81C0DFFF77511F
:10100200715F7851725B40C00FF0000E8225106E46
:10101200010E8321116E71C012F072C013F0A2ECA6
:1010220015F012002B50800B346E2B502B24366E91
:101032002AAE1EEF08F020EF08F021EF08F036800C
:101042003650D8B427EF08F029EF08F03DEF08F04A
:101052003628D8A42FEF08F031EF08F039EF08F066
:10106200000E286E000E296E000E2A6E000E2B6EE8
:101072002A8E2B6A45EF08F0000E286E000E296EAC
:10108200000E2A6E000E2B6E2F50800B356E3450E0
:101092003518D8B44FEF08F051EF08F052EF08F0CE
:1010A200348C2F502F24356E2EAE5AEF08F05CEFA1
:1010B20008F05DEF08F035803550D8B463EF08F0E2
:1010C20065EF08F079EF08F03528D8A46BEF08F047
:1010D2006DEF08F075EF08F0000E2C6E000E2D6E0D
:1010E200000E2E6E000E2F6E2E8E2F6A81EF08F0EC
:1010F200000E2C6E000E2D6E000E2E6E000E2F6E48
:101102003650355CD8B088EF08F08AEF08F0B1EFBE
:1011120008F034AC8FEF08F091EF08F093EF08F08D
:10112200800E341A36C037F035C036F037C035F08D
:1011320028C037F02CC028F037C02CF029C037F077
:101142002DC029F037C02DF02AC037F02EC02AF06A
:1011520037C02EF02BC037F02FC02BF037C02FF046
:10116200376A365035C030F0316A305E000E315A7F
:1011720031BEC5EF08F0315009E11A0E305CD8A03B
:10118200C5EF08F0C7EF08F0FEEF08F0285029106D
:101192002A102B10D8A4D0EF08F0D3EF08F0010EDC
:1011A200D4EF08F0000E376E000E286E000E296E86
:1011B200000E2A6E000E2B6E35C036F007EF09F0D6
:1011C20037A0E6EF08F0E8EF08F0EEEF08F0D8906D
:1011D20037300109376EF0EF08F0D890373228A087
:1011E200F5EF08F0F7EF08F0F8EF08F0378E2B3440
:1011F2002B322A3229322832362A3550365CD8A090
:1012020005EF09F007EF09F0E1EF08F034BC0CEF4D
:1012120009F00EEF09F04EEF09F03650D8A414EFA2
:1012220009F016EF09F020EF09F0000E286E000E0B
:10123200296E000E2A6E000E2B6E6DEF0AF02C50F6
:1012420028262D5029222E502A222F502B222BA025
:101252002DEF09F02FEF09F0DBEF09F037A034EFA3
:1012620009F036EF09F03CEF09F0D8903730010968
:10127200376E3EEF09F0D890373228A043EF09F0DD
:1012820045EF09F046EF09F0378E2B342B322A3224
:1012920029322832362ADBEF09F02C50285C2D50F7
:1012A20029582E502A582B50800A306E2F50800A0F
:1012B2003058D8B05FEF09F061EF09F08CEF09F018
:1012C20028502C5C306E29502D58316E2A502E58E1
:1012D200326E2B502F58336EFF0E3024286EFF0EC5
:1012E2003120296EFF0E32202A6EFF0E33202B6E24
:1012F200800E341A376C3750D8A482EF09F084EF8D
:1013020009F094EF09F0010E2826000E29222A2264
:101312002B2294EF09F02C50285E2D50295A2E5082
:101322002A5A2F502B5A285029102A102B10D8A491
:101332009DEF09F09FEF09F0D4EF09F03750D8A4E0
:10134200A5EF09F0A7EF09F0D4EF09F0000E286E1F
:10135200000E296E000E2A6E000E2B6E6DEF0AF043
:10136200D890283629362A362B3637AEBBEF09F00D
:10137200BDEF09F0BEEF09F0288037A0C3EF09F0F6
:10138200C5EF09F0C9EF09F0D8803736CBEF09F085
:10139200D89037363650D8B4D1EF09F0D3EF09F0F0
:1013A200D4EF09F036062AAED9EF09F0DBEF09F0E7
:1013B200B1EF09F0356A37AEE1EF09F0E3EF09F07A
:1013C200FBEF09F037C030F07F0E3016D8B4ECEFE7
:1013D20009F0EEEF09F0F2EF09F0010E356EFBEFC6
:1013E20009F028A0F7EF09F0F9EF09F0FBEF09F097
:1013F200EEEF09F03550D8B401EF0AF003EF0AF02E
:101402002EEF0AF0010E2826000E29222A222B2274
:101412002BA00EEF0AF010EF0AF02EEF0AF028C010
:1014220030F029C031F02AC032F02BC033F033340F
:10143200333232323132303230C028F031C029F00A
:1014420032C02AF033C02BF03628D8B42BEF0AF082
:101452002DEF0AF02EEF0AF0362A3628D8B434EFF0
:101462000AF036EF0AF03EEF0AF03650D8A43CEF0D
:101472000AF03EEF0AF04FEF0AF0000E286E000E5F
:10148200296E000E2A6E000E2B6E3650D8A44CEF39
:101492000AF04EEF0AF04FEF0AF0346A36A054EF2A
:1014A2000AF056EF0AF059EF0AF02A8E5AEF0AF0C4
:1014B2002A9ED89036302B6E34AE62EF0AF064EF7B
:1014C2000AF065EF0AF02B8E28C028F029C029F017
:1014D2002AC02AF02BC02BF012000450800B0D6E94
:1014E20004500424136E03AE79EF0AF07BEF0AF086
:1014F2007CEF0AF013801350D8B482EF0AF084EF25
:101502000AF097EF0AF01328D8A48AEF0AF08CEFBA
:101512000AF094EF0AF0000E016E000E026E000E49
:10152200036E000E046E038E9FEF0AF0000E016E32
:10153200000E026E000E036E000E046E0850800B49
:101542000D1A08500824126E07AEAAEF0AF0ACEF8B
:101552000AF0ADEF0AF012801250D8B4B3EF0AF0DD
:10156200B5EF0AF0C8EF0AF01228D8A4BBEF0AF0D0
:10157200BDEF0AF0C5EF0AF0000E056E000E066E12
:10158200000E076E000E086E078ED0EF0AF0000EF6
:10159200056E000E066E000E076E000E086E1250EB
:1015A200D8B4D6EF0AF0D8EF0AF0E0EF0AF0135001
:1015B200D8A4DEEF0AF0E0EF0AF0EAEF0AF0000E3C
:1015C200016E000E026E000E036E000E046E80EFBE
:1015D2000CF007500102F3CF18F0F4CF19F01850B5
:1015E2000E6E0F6A106A116A1950146E156A166A25
:1015F200176A06500202F3CF18F0F4CF19F0185010
:101602000E26000E0F221022112219501426000E4F
:1016120015221622172205500302F3CF18F0F4CF39
:1016220019F018500E26000E0F2210221122195006
:101632001426000E15221622172210C011F00FC018
:1016420010F00EC00FF00E6A05500202F3CF18F030
:10165200F4CF19F018500E2619500F22000E102246
:10166200000E112206500102F3CF18F0F4CF19F048
:1016720018500E2619500F22000E1022000E1122B1
:1016820010C011F00FC010F00EC00FF00E6A05501E
:101692000102F3CF18F0F4CF19F018500E261950AA
:1016A2000F22000E1022000E112207500202F3CF69
:1016B20018F0F4CF19F01850142619501522000E04
:1016C2001622000E172206500302F3CF18F0F4CFB1
:1016D20019F01850142619501522000E1622000E69
:1016E200172207500302F3CF18F0F4CF19F0185065
:1016F200096E19500A6E0B6A0C6A0BC00CF00AC014
:101702000BF009C00AF0096A095014260A50152282
:101712000B5016220C5017220EC009F00FC00AF00F
:1017220010C00BF011C00CF0190E9DEF0BF0D89009
:101732000C320B320A320932E82E98EF0BF00950C4
:1017420014260A5015220B5016220C50172210C0D4
:1017520011F00FC010F00EC00FF00E6A125013C03D
:1017620009F00A6A0926000E0A22820E0924186E5E
:10177200FF0E0A20196ED3EF0BF0D89014361536EF
:101782001636173611AEC8EF0BF0CAEF0BF0CBEFDF
:101792000BF01480D8900E360F361036113618061C
:1017A200D8A0190616AED8EF0BF0DAEF0BF0BEEFA9
:1017B2000BF0126A11AEE0EF0BF0E2EF0BF006EF66
:1017C2000CF0FF0E0E14096EFF0E0F140A6EFF0EC0
:1017D20010140B6E7F0E11140C6E09500A100B10B0
:1017E2000C10D8B4F7EF0BF0F9EF0BF0FDEF0BF0A4
:1017F200010E126E06EF0CF014A002EF0CF004EFD3
:101802000CF006EF0CF0F9EF0BF01250D8B40CEF1D
:101812000CF00EEF0CF032EF0CF0010E1426000E5D
:1018220015221622172217A019EF0CF01BEF0CF04D
:1018320032EF0CF014C009F015C00AF016C00BF01C
:1018420017C00CF00C340C320B320A32093209C0C8
:1018520014F00AC015F00BC016F00CC017F0184AAD
:10186200192A19BE3DEF0CF0195008E11828D8A02A
:101872003DEF0CF03FEF0CF049EF0CF0000E146E50
:10188200000E156E800E166E7F0E176E76EF0CF040
:1018920019BE56EF0CF0195006E11804D8B054EFF7
:1018A2000CF056EF0CF061EF0CF0000E146E000E0F
:1018B200156E000E166E000E176E0D6A76EF0CF0A6
:1018C20018C013F0FF0E1416FF0E15167F0E161613
:1018D200000E171613A070EF0CF072EF0CF073EFFE
:1018E2000CF0168ED8901330176E0D50171214C0CC
:1018F20001F015C002F016C003F017C004F0120088
:101902001250800B1F6E12501224266E11AE8CEFF5
:101912000CF08EEF0CF08FEF0CF026802650D8B42E
:1019220095EF0CF097EF0CF0ABEF0CF02628D8A453
:101932009DEF0CF09FEF0CF0A7EF0CF0000E0F6E76
:10194200000E106E000E116E000E126E118E126AD3
:10195200B3EF0CF0000E0F6E000E106E000E116E43
:10196200000E126E1650800B1F1A16501624276E88
:1019720015AEBEEF0CF0C0EF0CF0C1EF0CF02780FB
:101982002750D8B4C7EF0CF0C9EF0CF0DDEF0CF024
:101992002728D8A4CFEF0CF0D1EF0CF0D9EF0CF040
:1019A200000E136E000E146E000E156E000E166EF3
:1019B200158E166AE5EF0CF0000E136E000E146E13
:1019C200000E156E000E166E135014101510161020
:1019D200D8A4EEEF0CF0F0EF0CF008EF0DF0000ED3
:1019E2000F6E000E106E000E116E000E126E800E43
:1019F20011127F0E12121F5012120FC00FF010C0E0
:101A020010F011C011F012C012F048EF0EF0265083
:101A1200D8A40EEF0DF010EF0DF01AEF0DF0000E3E
:101A22000F6E000E106E000E116E000E126E48EF59
:101A32000EF0275026C017F0186A175E000E185ACB
:101A42007F0E1724206E000E1820216E0FC01BF08F
:101A520010C01CF011C01DF012C01EF0000E0F6E5F
:101A6200000E106E000E116E000E126E000E226E2F
:101A7200000E236E000E246E000E256E276A7AEF8A
:101A82000DF02750D8B448EF0DF04AEF0DF061EF9A
:101A92000DF0D8901B361C361D361E36D8900F36E8
:101AA20010361136123625AE59EF0DF05BEF0DF000
:101AB2005CEF0DF00F80D89022362336243625367F
:101AC20013501B5C14501C5815501D5816501E58AC
:101AD200D8A06EEF0DF070EF0DF079EF0DF0258CC0
:101AE20013501B5E14501C5A15501D5A16501E5A84
:101AF200272A190E276480EF0DF082EF0DF042EFD6
:101B02000DF01B501C101D101E10D8B48BEF0DF0E1
:101B12008DEF0DF0A5EF0DF02280A5EF0DF0D8901E
:101B22000F3610361136123625AE9AEF0DF09CEFB5
:101B32000DF09DEF0DF00F80D8902236233624361B
:101B420025362006D8A0210611AEAAEF0DF0ACEF83
:101B52000DF090EF0DF0276A25AEB2EF0DF0B4EF65
:101B62000DF0D8EF0DF0FF0E2214176EFF0E2314A6
:101B7200186EFF0E2414196E7F0E25141A6E17505C
:101B8200181019101A10D8B4C9EF0DF0CBEF0DF0E0
:101B9200CFEF0DF0010E276ED8EF0DF00FA0D4EFAE
:101BA2000DF0D6EF0DF0D8EF0DF0CBEF0DF0275082
:101BB200D8B4DEEF0DF0E0EF0DF004EF0EF0010E01
:101BC2000F26000E10221122122212A0EBEF0DF0AE
:101BD200EDEF0DF004EF0EF00FC017F010C018F08B
:101BE20011C019F012C01AF01A341A32193218320E
:101BF200173217C00FF018C010F019C011F01AC038
:101C020012F0204A212A21BE0FEF0EF0215008E1E6
:101C12002028D8A00FEF0EF011EF0EF01CEF0EF0FF
:101C2200000E216E2068000E0F6E000E106E000E68
:101C3200116E000E126E21BE29EF0EF0215006E148
:101C42002004D8B027EF0EF029EF0EF036EF0EF099
:101C5200000E216E000E206E000E0F6E000E106E32
:101C6200000E116E000E126E1F6A20C026F026A012
:101C72003DEF0EF03FEF0EF042EF0EF0118E43EF0C
:101C82000EF0119ED8902630126EFCEF0CF012006E
:101C9200C8C038F0C9C039F0CAC03AF0CBC03BF076
:101CA20028C038F029C039F02AC03AF02BC03BF0E6
:101CB200810E2C6EFF0E2D6E38C02EF039C02FF023
:101CC2003AC030F03BC031F0180E6DEF0EF0D890F4
:101CD200313230322F322E32E82E68EF0EF02E5093
:101CE2002C24366E000E2D20376E37BE82EF0EF09A
:101CF200375009E1170E365CD8A082EF0EF084EF60
:101D02000EF08EEF0EF028C028F029C029F02AC06C
:101D12002AF02BC02BF051EF0FF037BE93EF0EF0ED
:101D220095EF0EF005EF0FF036C02CF0FF0E2D6E82
:101D3200FF0E2E6E7F0E2F6E000E306E2C66A4EFFD
:101D42000EF0ACEF0EF0303430322F322E322D3214
:101D52002C2E9FEF0EF02DC032F02EC033F02FC08C
:101D620034F030C035F0325038142C6E3350391400
:101D72002D6E34503A142E6E35503B142F6E2C506B
:101D82002D102E102F10D8A4C9EF0EF0CBEF0EF0AD
:101D9200CDEF0EF084EF0EF038C02CF039C02DF0EC
:101DA2003AC02EF03BC02FF0200EDDEF0EF0D8909F
:101DB2002F322E322D322C32E82ED8EF0EF02C504C
:101DC2002D102E102F10D8B4E9EF0EF0EBEF0EF01D
:101DD200F3EF0EF0325038263350392234503A2283
:101DE20035503B22321C2C6E331C2D6E341C2E6E51
:101DF200351C2F6E2C5038162D5039162E503A168F
:101E02002F503B1649EF0FF038C02CF039C02DF09F
:101E12003AC02EF03BC02FF0200E15EF0FF0D890F5
:101E22002F322E322D322C32E82E10EF0FF02C50A2
:101E32002D102E102F10D8A421EF0FF023EF0FF04A
:101E42002DEF0FF0000E386E000E396E000E3A6E56
:101E5200000E3B6E49EF0FF0D89038342C6E3934B7
:101E62002D6E3A342E6E3B342F6E2C502D102E10C8
:101E72002F10D8B43FEF0FF041EF0FF049EF0FF002
:101E8200000E386E000E396E800E3A6EBF0E3B6E3B
:101E920038C028F039C029F03AC02AF03BC02BF0F4
:101EA20012004950D96EDA6ADFCFF6FF060EF76EDE
:101EB2000800F550250AD8A461EF0FF063EF0FF088
:101EC20046EF10F04950D96EDA6ADF2A000E00019F
:101ED200D16F000ED06FD0C05EF0D269D369495085
:101EE200D96EDA6ADFCFF6FF060EF76E0800F550FC
:101EF2002E0AD8A47FEF0FF081EF0FF08FEF0FF0D3
:101F02004950D96EDA6ADF2A49C001F04AC002F0AC
:101F120017EC15F001C0D2F002C0D3F04950D96ECF
:101F2200DA6ADF50516E51C0F6FF060EF76E0800F6
:101F3200F5CF50F0A7EF0FF0512AB6EF0FF06C0E6D
:101F4200506EB6EF0FF0506AB6EF0FF050504C0AD9
:101F5200D8B49DEF0FF02A0AD8B4A0EF0FF00A0A06
:101F6200D8B49DEF0FF0A4EF0FF051C0F6FF060EAC
:101F7200F76E0800F550660AD8A4C2EF0FF0C4EF5E
:101F82000FF021EF10F0EEEF0FF04A50D96EDA6A3F
:101F9200DFCF4BF0040EDF264B50D96EDA6ADECF6C
:101FA2004CF0DECF4DF0DECF4EF0DECF4FF0F9EF4A
:101FB2000FF04A50D96EDA6ADFCF4BF0040EDF26FB
:101FC2004B50D96EDA6ADECF4CF0DECF4DF0DECF69
:101FD2004EF0DECF4FF0F9EF0FF050504C0AD8B46C
:101FE200DAEF0FF0200AD8B4C6EF0FF0F9EF0FF0D6
:101FF2004950D96EDA6A5128DF6E15EF10F048C0E9
:1020020040F04CC041F04DC042F04EC043F04FC0D2
:1020120044F051C0F6FF060EF76E0800F5CF45F00A
:1020220021EC03F057EF10F051C0F6FF060EF76EE9
:102032000800F550660AD8B400EF10F021EF10F056
:102042004950D96EDA6ADFCFF6FF060EF76E080046
:10205200F550250AD8A430EF10F032EF10F040EF1F
:1020620010F04950D96EDA6ADF2A000E026E250E90
:10207200016E48C003F06DEC14F057EF10F04950B8
:10208200D96EDA6ADF2A57EF10F04950D96EDA6A50
:10209200DFCFF6FF060EF76E0800F550016E026AFA
:1020A20048C003F06DEC14F040EF10F01200B7ECF2
:1020B20017F0A1EC17F0000E496E000E486E69ECA5
:1020C20015F04850020DF3503E0FD96EDA6A01C086
:1020D200DEFF02C0DDFF484A492A49BE7AEF10F00E
:1020E200495009E1050E485CD8A07AEF10F07CEF68
:1020F20010F060EF10F03EC001F03FC002F0000EA1
:1021020002BEFF0E036E046E010E3BEC11F001C025
:1021120028F002C029F003C02AF004C02BF0000E00
:10212200136E000E146E200E156E410E166E20EE0A
:1021320040F0DECF01F0DDCF02F0000E02BEFF0E56
:10214200036E046E010E3BEC11F001C00FF002C0F1
:1021520010F003C011F004C012F081EC0CF00FC0BB
:102162002CF010C02DF011C02EF012C02FF013EC85
:1021720008F03950D96EDA6A28C0DEFF29C0DEFFC6
:102182002AC0DEFF2BC0DEFF20EE42F0DECF01F0E0
:10219200DDCF02F0000E02BEFF0E036E046E010ED2
:1021A2003BEC11F001C028F002C029F003C02AF074
:1021B20004C02BF0000E136E000E146E200E156E6E
:1021C200410E166E20EE44F0DECF01F0DDCF02F0BC
:1021D200000E02BEFF0E036E046E010E3BEC11F008
:1021E20001C00FF002C010F003C011F004C012F0E1
:1021F20081EC0CF00FC02CF010C02DF011C02EF0AD
:1022020012C02FF013EC08F03850D96EDA6A28C0E9
:10221200DEFF29C0DEFF2AC0DEFF2BC0DEFF4250F8
:1022220040243A6E435041203B6E44503A2645507A
:102232003B223E503A243C6E3F503B203D6EFF0E07
:102242003C143A6E000E3D143B6E46503A1809E1BA
:1022520047503B18D8B430EF11F032EF11F036EF9F
:1022620011F0386839683AEF11F0000E396E000E3D
:10227200386E1200096E0950D8B442EF11F044EFE3
:1022820011F066EF11F004BE4BEF11F049EF11F0BF
:1022920066EF11F001C005F002C006F003C007F0BE
:1022A20004C008F0051E061E071E081E052A000EA1
:1022B20006220722082205C00BF006C00CF007C058
:1022C2000DF008C00EF06EEF11F001C00BF002C06D
:1022D2000CF003C00DF004C00EF001500210031008
:1022E2000410D8A477EF11F079EF11F083EF11F019
:1022F200000E016E000E026E000E036E000E046EE2
:1023020014EF12F0960E0A6E8DEF11F00A2AD89091
:102312000E320D320C320B32000E0B14056E000E13
:102322000C14066E000E0D14076EFE0E0E14086ECF
:102332000550061007100810D8A4A2EF11F0A4EF60
:1023420011F087EF11F0B2EF11F00A2A010E0B26FD
:10235200000E0C220D220E22D8900E320D320C32BB
:102362000B32000E0B14056E000E0C14066E000EDE
:102372000D14076EFF0E0E14086E0550061007109E
:102382000810D8A4C7EF11F0C9EF11F0A6EF11F0B1
:10239200D1EF11F00A06D8900B360C360D360E36F8
:1023A2000DBED6EF11F0D8EF11F0E0EF11F0020EF2
:1023B2000A60DEEF11F0E0EF11F0CBEF11F00AB09E
:1023C200E5EF11F0E7EF11F0E8EF11F00D9ED89074
:1023D2000A320AC005F0066A076A086A05C008F0F0
:1023E200076A066A056A05500B1206500C1207505E
:1023F2000D1208500E120950D8B402EF12F004EF79
:1024020012F00CEF12F004BE0BEF12F009EF12F013
:102412000CEF12F00E8E0BC001F00CC002F00DC0DA
:1024220003F00EC004F01200000E0001C06F000E97
:10243200C16F000EC26F000EC36F000EC46F000E9C
:10244200C56F000EC66F000EC76FDDEC17F00F01EF
:10245200386B396B3A6B3B6B959495968C948C9652
:10246200800E05EC18F083EC16F0010E056E010EDD
:1024720004EC16F0110E056E0550D8A4060E066E79
:10248200D5EC15F0520E5D6E2B0E5C6E000EE82E32
:10249200FED75C2EFCD75D2EFAD700D0FAEC17F0EF
:1024A200C00E386EC40E396E58EC10F03850391028
:1024B200D8A45EEF12F060EF12F0B8EF12F0AC0E9B
:1024C200566E010E576EC4C058F0C5C059F0C6C052
:1024D2005AF0C7C05BF069EC17F0980E566E1E0EEC
:1024E200576EC0C058F0C1C059F0C2C05AF0C3C044
:1024F2005BF069EC17F0000E1A6E000E1B6EC80E30
:102502001C6E410E1D6EC0C01EF0C1C01FF0C2C0C5
:1025120020F0C3C021F06CEC13F0D8B093EF12F0AE
:1025220095EF12F098EF12F08C8499EF12F08C94E0
:10253200000E1A6E000E1B6E200E1C6E420E1D6ED9
:10254200C4C01EF0C5C01FF0C6C020F0C7C021F035
:102552006CEC13F0D8B0B0EF12F0B2EF12F0B5EFAE
:1025620012F08C86C3EF12F08C96C3EF12F0AC0E11
:10257200566E2B0E576E69EC17F00001986B8C9417
:10258200B5EF12F0FAEC17F0010E056E010E04EC35
:1025920016F0AC0E056E066AD5EC15F0020E056E4D
:1025A200010E04EC16F0980E056E066AD5EC15F0D5
:1025B200290E5D6E960E5C6E7F0EE82EFED75C2EA7
:1025C200FCD75D2EFAD7000051EF12F0FEEF3FF07C
:1025D200033404340A6E0A50D8A4F2EF12F0F4EF76
:1025E20012F0FEEF12F0000E016E000E026E000EEF
:1025F200036E000E046E6BEF13F001C005F002C013
:1026020006F003C007F004C008F0200E0EEF13F02E
:10261200D8900832073206320532E82E09EF13F05D
:102622000550096E038EFF0E0116FF0E0216FF0EF5
:102632000316000E0416960E0A5E0ABE25EF13F06C
:1026420023EF13F03BEF13F00A50800A970FD8B034
:102652002DEF13F02FEF13F031EF13F0F4EF12F030
:10266200D89004320332023201320A3E31EF13F0C3
:1026720053EF13F01F0E0A6441EF13F043EF13F010
:102682004BEF13F0F4EF12F0D89001360236033616
:1026920004360A060A50D8A451EF13F053EF13F090
:1026A20045EF13F00950D8B459EF13F05BEF13F074
:1026B20063EF13F0041E031E021E016C000E0222C1
:1026C2000322042201C001F002C002F003C003F0A1
:1026D20004C004F01200000E1A14226E000E1B1425
:1026E200236E800E1C14246E7F0E1D14256E225044
:1026F200231024102510D8A481EF13F083EF13F0D8
:102702008BEF13F0000E1A6E000E1B6E000E1C6E85
:10271200000E1D6E000E1E14226E000E1F14236E7C
:10272200800E2014246E7F0E2114256E2250231059
:1027320024102510D8A4A0EF13F0A2EF13F0AAEFF3
:1027420013F0000E1E6E000E1F6E000E206E000EA5
:10275200216E1DAEAFEF13F0B1EF13F0BAEF13F02D
:102762001A6C1B1ED8B01B2A1C1ED8B01C2A800E45
:102772001D5621AEBFEF13F0C1EF13F0CAEF13F0F5
:102782001E6C1F1ED8B01F2A201ED8B0202A800E11
:102792002156000E1A1A000E1B1A000E1C1A800E69
:1027A2001D1A000E1E1A000E1F1A000E201A800E8D
:1027B200211A1E501A5C1F501B5820501C582150C1
:1027C2001D58D8B0E7EF13F0E9EF13F0ECEF13F078
:1027D200D890EDEF13F0D8801200CCC00BF0CDC032
:1027E2000CF0CEC00DF0CFC00EF001C00BF002C055
:1027F2000CF003C00DF004C00EF00BC005F00CC0CD
:1028020006F00DC007F00EC008F0180E0EEF14F01F
:10281200D8900832073206320532E82E09EF14F05A
:102822000550096E0A6A09500A10D8A41BEF14F069
:102832001DEF14F03DEF14F0D8900B34056E0C34FC
:10284200066E0D34076E0E34086E05500610071022
:102852000810D8A42FEF14F031EF14F037EF14F072
:10286200000E026E020E016E6CEF14F0000E026E8C
:10287200030E016E6CEF14F009280A10D8A444EF7D
:1028820014F046EF14F068EF14F00BC005F00CC022
:1028920006F00DC007F00EC008F0090ED8900536FC
:1028A200063607360836E82E4FEF14F005500610AC
:1028B20007100810D8B460EF14F063EF14F0010EA3
:1028C20064EF14F0000E016E026A6CEF14F0000E59
:1028D200026E040E016E12000350D8B473EF14F0AE
:1028E20075EF14F07DEF14F00350D8A47BEF14F0D1
:1028F2007DEF14F082EF14F0015024EC18F0C1EFD8
:1029020014F00350D96EDA6A090ED926DE50DE10B1
:10291200D8B48EEF14F090EF14F0A9EF14F0035036
:10292200D96EDA6A090ED9260350E16EE26A020E06
:10293200E126DE50E65CE650800A086EDE50800A30
:102942000858D8B0A7EF14F0A9EF14F0C1EF14F0B3
:102952000350D96EDA6A020ED926DF50046E035094
:10296200D96EDA6ADF500424D96EDA6A01C0DFFF59
:102972000350D96EDA6A020ED926DE2A000EDD2253
:102982001200000E0114096E000E02140A6E800E6F
:1029920003140B6E7F0E04140C6E09500A100B10F8
:1029A2000C10D8A4D7EF14F0D9EF14F0E1EF14F023
:1029B200000E016E000E026E000E036E000E046E1B
:1029C200000E0514096E000E06140A6E800E07141E
:1029D2000B6E7F0E08140C6E09500A100B100C10AF
:1029E200D8A4F6EF14F0F8EF14F000EF15F0000E93
:1029F200056E000E066E000E076E000E086E055084
:102A020001180FE1065002180CE10750031809E102
:102A120008500418D8B410EF15F012EF15F015EFA6
:102A220015F0D89016EF15F0D8801200000E076E40
:102A3200000E066E0150D96EDA6ADFCFF6FF060E7F
:102A4200F76E0800F5502A0AD8A42AEF15F02CEFE9
:102A520015F051EF15F00150D96EDA6ADF2A0250F3
:102A6200D96EDA6A020EDF26DF5CD96EDA6ADECF51
:102A720006F0DECF07F064EF15F00A0E0602F3CF80
:102A820003F0F4CF04F00702F350042605500324A8
:102A9200066E000E0420076E0150D96EDA6ADF2A34
:102AA2000150D96EDA6ADFCFF6FF060EF76E080024
:102AB200F550D00F056E090E056462EF15F064EF54
:102AC20015F03EEF15F006C001F007C002F012004B
:102AD200000E046E000E036E000E066E000E056EF2
:102AE20080A276EF15F078EF15F071EF15F0A00ED9
:102AF200E82EFED7D8900336043680A283EF15F075
:102B020085EF15F086EF15F0038080B28BEF15F09C
:102B12008DEF15F086EF15F0054A062A06BE9BEFEB
:102B220015F0065009E1080E055CD8A09BEF15F0E0
:102B32009DEF15F071EF15F003C001F004C002F033
:102B4200120013BEA9EF15F0A7EF15F0ADEF15F0C7
:102B5200000E136E000E126E000E166E000E156E33
:102B6200BDEF15F0000E026E200E016E0FC003F0D5
:102B72006DEC14F0154A162A1250155C1650800A94
:102B8200146E1350800A1458D8A0CAEF15F0CCEF77
:102B920015F0B3EF15F010C009F011C00AF00FC024
:102BA2000BF0CDEC16F01200EBEF15F005C0F6FFBE
:102BB20006C0F7FFF86A050EF76403D00800F55067
:102BC20005D0F6CFE1FFF7CFE2FFE750EDEC16F0CC
:102BD200054A062A05C0F6FF06C0F7FFF86A050E89
:102BE200F76403D00800F55005D0F6CFE1FFF7CF28
:102BF200E2FFE7500009D8A401EF16F003EF16F048
:102C0200D7EF15F01200066E16EF16F0076A29EFDD
:102C120016F0400E076E29EF16F0140E076E29EF1C
:102C220016F0540E076E29EF16F00550010AD8B4BB
:102C320007EF16F0030AD8B40AEF16F0010AD8B467
:102C42000EEF16F0070AD8B412EF16F007EF16F0DF
:102C520006040726075080090DEC17F0120004BE87
:102C620035EF16F037EF16F041EF16F001C001F024
:102C720002C002F003C003F004C004F05AEF16F0E1
:102C820001C005F002C006F003C007F004C008F05E
:102C9200051E061E071E081E052A000E0622072212
:102CA200082205C001F006C002F007C003F008C008
:102CB20004F0120003C009F004C00AF001C007F0DA
:102CC20002C008F075EF16F009C0D9FF0AC0DAFF9A
:102CD200DF500B6E094A0A2A07C0D9FF08C0DAFF83
:102CE2000BC0DFFF074A082A0506D8A006060528FA
:102CF20006E10628D8A480EF16F082EF16F065EF01
:102D020016F01200020E066EA00E056E920EE82E4E
:102D1200FED7052EFCD7062EFAD700D0330E0DECC7
:102D220017F0320E0DEC17F0280E0DEC17F00C0E0A
:102D32000DEC17F0060E0DEC17F0010E0DEC17F06E
:102D42003F0E056E550EE82EFED7052EFCD700006D
:102D52001200000E3C1A000E3D1A000E3E1A800EA2
:102D62003F1A38C028F039C029F03AC02AF03BC0D7
:102D72002BF03CC02CF03DC02DF03EC02EF03FC0E9
:102D82002FF013EC08F028C038F029C039F02AC01F
:102D92003AF02BC03BF01200000E0E6E000E0D6ECC
:102DA200DCEF16F00CC001F0026A0BC003F06DEC10
:102DB20014F00D4A0E2A0D500924D96E0E500A2025
:102DC200DA6EDF500C6E0C50D8A4EAEF16F0ECEF7E
:102DD20016F0D3EF16F01200026E0250F00B036EE3
:102DE2000238F00BF00B046E1AEC18F04E0EEDECFC
:102DF20017F003500D09EDEC17F003500909EDEC43
:102E020017F004500D09EDEC17F004500909EDEC30
:102E120017F010EC18F01200026E0250F00B036E65
:102E22000238F00BF00B046E1AEC18F04E0EEDECBB
:102E320017F003500C09EDEC17F003500809EDEC04
:102E420017F004500C09EDEC17F004500809EDECF2
:102E520017F010EC18F0120053C055F039EF17F0CC
:102E620052C048F0550E496E54C04AF052EC0FF071
:102E720055C0F6FF060EF76E0800F5500009D8A4FB
:102E820045EF17F047EF17F031EF17F0000E536ED2
:102E9200000E526E120001C005F002C006F0032AB5
:102EA2000304046E04C0F6FF060EF76E05C0D9FFD8
:102EB20006C0DAFF054A062A0800F5CFDFFFDF5019
:102EC200D8A466EF17F068EF17F050EF17F0120072
:102ED200580E00018C6F56C08DF0000E906F000EE0
:102EE2008F6F000E976F000E966F8D0E526E57C049
:102EF20053F08C0E546E2DEC17F0565000018F25B6
:102F0200D96EDA6ADF6A120001500210031004104F
:102F1200D8B48EEF17F090EF17F098EF17F0000E7D
:102F2200011A000E021A000E031A800E041A01C0C2
:102F320001F002C002F003C003F004C004F012006A
:102F420080B2A6EF17F0A8EF17F0A1EF17F080A25A
:102F5200ADEF17F0AFEF17F0A8EF17F080B2B4EFB4
:102F620017F0B6EF17F0AFEF17F0120092928992B6
:102F7200020E026EA00E016E920EE82EFED7012EF8
:102F8200FCD7022EFAD700D08982A00EE82EFED7F7
:102F92009282120001EE00F0500EEE6AE806FDE1A8
:102FA20000EEC8F00C0EEE6AE806FDE15E6A000E65
:102FB200F86E000115EF12F09B8CD3508F0B600955
:102FC200D36EFC0ED316150E016EC60EE82EFED77A
:102FD200012EFCD700D01200016E01C0C9FF9EA6CF
:102FE200F5EF17F0F7EF17F0F0EF17F09E96C550D8
:102FF2001200010E0DEC17F02A0E056E8E0EE82E51
:10300200FED7052EFCD71200016E9486948801C06B
:10301200C7FF280EC66EC56A9F0EC86E1200C58411
:103022009EA616EF18F018EF18F011EF18F09E9602
:103032001200C5809EA620EF18F022EF18F01BEFB9
:0830420018F09E961200120026
:047FFC00CBEF17F0C0
:020000040020DA
:08000000FFFFFFFFFFFFFFFF00
:020000040030CA
:0E000000FF08193CFFB580FF0FC00FE00F4056
:00000001FF
